{"contracts/UniblokContract.sol":{"UniblokContract":{"abi":[{"inputs":[{"internalType":"string[]","name":"_partyDetails","type":"string[]"},{"internalType":"uint256[]","name":"_contractOverview","type":"uint256[]"},{"internalType":"uint256[]","name":"_serviceChargeDetails","type":"uint256[]"},{"internalType":"string[]","name":"_typeAndDuration","type":"string[]"}],"stateMutability":"nonpayable","type":"constructor"},{"inputs":[],"name":"ContractOverview","outputs":[{"internalType":"uint256","name":"estimatedBudget","type":"uint256"},{"internalType":"uint256","name":"estimatedHours","type":"uint256"},{"internalType":"uint256","name":"estimatedWeek","type":"uint256"},{"internalType":"uint256","name":"estimatedTeamSize","type":"uint256"},{"internalType":"uint256","name":"netSettlement","type":"uint256"}],"stateMutability":"view","type":"function"},{"inputs":[],"name":"ServiceChargeDetails","outputs":[{"internalType":"uint256","name":"uniblokServiceFee","type":"uint256"},{"internalType":"uint256","name":"expectedAmountToBeReceived","type":"uint256"},{"internalType":"uint256","name":"finalAmount","type":"uint256"}],"stateMutability":"view","type":"function"},{"inputs":[],"name":"TypeAndDuration","outputs":[{"internalType":"string","name":"jobCategory","type":"string"},{"internalType":"string","name":"OfferDate","type":"string"},{"internalType":"string","name":"offerExpires","type":"string"},{"internalType":"string","name":"expectedCompletionOn","type":"string"}],"stateMutability":"view","type":"function"},{"inputs":[],"name":"partyDetail","outputs":[{"internalType":"string","name":"jobTitle","type":"string"},{"internalType":"string","name":"clientName","type":"string"},{"internalType":"string","name":"serviceProvider","type":"string"}],"stateMutability":"view","type":"function"}],"evm":{"bytecode":{"linkReferences":{},"object":"60806040523480156200001157600080fd5b50604051620012f5380380620012f583398181016040528101906200003791906200072c565b6040518060600160405280856000815181106200005957620000586200081a565b5b60200260200101518152602001856001815181106200007d576200007c6200081a565b5b6020026020010151815260200185600281518110620000a157620000a06200081a565b5b6020026020010151815250600080820151816000019081620000c4919062000a8a565b506020820151816001019081620000dc919062000a8a565b506040820151816002019081620000f4919062000a8a565b509050506040518060a00160405280846000815181106200011a57620001196200081a565b5b60200260200101518152602001846001815181106200013e576200013d6200081a565b5b60200260200101518152602001846002815181106200016257620001616200081a565b5b60200260200101518152602001846003815181106200018657620001856200081a565b5b6020026020010151815260200184600481518110620001aa57620001a96200081a565b5b6020026020010151815250600360008201518160000155602082015181600101556040820151816002015560608201518160030155608082015181600401559050506040518060600160405280836000815181106200020e576200020d6200081a565b5b60200260200101518152602001836001815181106200023257620002316200081a565b5b60200260200101518152602001836002815181106200025657620002556200081a565b5b60200260200101518152506008600082015181600001556020820151816001015560408201518160020155905050604051806080016040528082600081518110620002a657620002a56200081a565b5b6020026020010151815260200182600181518110620002ca57620002c96200081a565b5b6020026020010151815260200182600281518110620002ee57620002ed6200081a565b5b60200260200101518152602001826003815181106200031257620003116200081a565b5b6020026020010151815250600b600082015181600001908162000336919062000a8a565b5060208201518160010190816200034e919062000a8a565b50604082015181600201908162000366919062000a8a565b5060608201518160030190816200037e919062000a8a565b509050505050505062000b71565b6000604051905090565b600080fd5b600080fd5b600080fd5b6000601f19601f8301169050919050565b7f4e487b7100000000000000000000000000000000000000000000000000000000600052604160045260246000fd5b620003f082620003a5565b810181811067ffffffffffffffff82111715620004125762000411620003b6565b5b80604052505050565b6000620004276200038c565b9050620004358282620003e5565b919050565b600067ffffffffffffffff821115620004585762000457620003b6565b5b602082029050602081019050919050565b600080fd5b600080fd5b600067ffffffffffffffff821115620004915762000490620003b6565b5b6200049c82620003a5565b9050602081019050919050565b60005b83811015620004c9578082015181840152602081019050620004ac565b60008484015250505050565b6000620004ec620004e68462000473565b6200041b565b9050828152602081018484840111156200050b576200050a6200046e565b5b62000518848285620004a9565b509392505050565b600082601f830112620005385762000537620003a0565b5b81516200054a848260208601620004d5565b91505092915050565b60006200056a62000564846200043a565b6200041b565b9050808382526020820190506020840283018581111562000590576200058f62000469565b5b835b81811015620005de57805167ffffffffffffffff811115620005b957620005b8620003a0565b5b808601620005c8898262000520565b8552602085019450505060208101905062000592565b5050509392505050565b600082601f8301126200060057620005ff620003a0565b5b81516200061284826020860162000553565b91505092915050565b600067ffffffffffffffff821115620006395762000638620003b6565b5b602082029050602081019050919050565b6000819050919050565b6200065f816200064a565b81146200066b57600080fd5b50565b6000815190506200067f8162000654565b92915050565b60006200069c62000696846200061b565b6200041b565b90508083825260208201905060208402830185811115620006c257620006c162000469565b5b835b81811015620006ef5780620006da88826200066e565b845260208401935050602081019050620006c4565b5050509392505050565b600082601f830112620007115762000710620003a0565b5b81516200072384826020860162000685565b91505092915050565b6000806000806080858703121562000749576200074862000396565b5b600085015167ffffffffffffffff8111156200076a57620007696200039b565b5b6200077887828801620005e8565b945050602085015167ffffffffffffffff8111156200079c576200079b6200039b565b5b620007aa87828801620006f9565b935050604085015167ffffffffffffffff811115620007ce57620007cd6200039b565b5b620007dc87828801620006f9565b925050606085015167ffffffffffffffff8111156200080057620007ff6200039b565b5b6200080e87828801620005e8565b91505092959194509250565b7f4e487b7100000000000000000000000000000000000000000000000000000000600052603260045260246000fd5b600081519050919050565b7f4e487b7100000000000000000000000000000000000000000000000000000000600052602260045260246000fd5b600060028204905060018216806200089c57607f821691505b602082108103620008b257620008b162000854565b5b50919050565b60008190508160005260206000209050919050565b60006020601f8301049050919050565b600082821b905092915050565b6000600883026200091c7fffffffffffffffffffffffffffffffffffffffffffffffffffffffffffffffff82620008dd565b620009288683620008dd565b95508019841693508086168417925050509392505050565b6000819050919050565b60006200096b620009656200095f846200064a565b62000940565b6200064a565b9050919050565b6000819050919050565b62000987836200094a565b6200099f620009968262000972565b848454620008ea565b825550505050565b600090565b620009b6620009a7565b620009c38184846200097c565b505050565b5b81811015620009eb57620009df600082620009ac565b600181019050620009c9565b5050565b601f82111562000a3a5762000a0481620008b8565b62000a0f84620008cd565b8101602085101562000a1f578190505b62000a3762000a2e85620008cd565b830182620009c8565b50505b505050565b600082821c905092915050565b600062000a5f6000198460080262000a3f565b1980831691505092915050565b600062000a7a838362000a4c565b9150826002028217905092915050565b62000a958262000849565b67ffffffffffffffff81111562000ab15762000ab0620003b6565b5b62000abd825462000883565b62000aca828285620009ef565b600060209050601f83116001811462000b02576000841562000aed578287015190505b62000af9858262000a6c565b86555062000b69565b601f19841662000b1286620008b8565b60005b8281101562000b3c5784890151825560018201915060208501945060208101905062000b15565b8683101562000b5c578489015162000b58601f89168262000a4c565b8355505b6001600288020188555050505b505050505050565b6107748062000b816000396000f3fe608060405234801561001057600080fd5b506004361061004c5760003560e01c8063376a646a1461005157806352d585ed14610073578063d2ac368714610093578063ef4d4e2b146100b4575b600080fd5b6100596100d4565b60405161006a959493929190610517565b60405180910390f35b61007b6100f8565b60405161008a9392919061056a565b60405180910390f35b61009b610110565b6040516100ab9493929190610631565b60405180910390f35b6100bc61034e565b6040516100cb93929190610692565b60405180910390f35b60038060000154908060010154908060020154908060030154908060040154905085565b60088060000154908060010154908060020154905083565b600b8060000180546101219061070d565b80601f016020809104026020016040519081016040528092919081815260200182805461014d9061070d565b801561019a5780601f1061016f5761010080835404028352916020019161019a565b820191906000526020600020905b81548152906001019060200180831161017d57829003601f168201915b5050505050908060010180546101af9061070d565b80601f01602080910402602001604051908101604052809291908181526020018280546101db9061070d565b80156102285780601f106101fd57610100808354040283529160200191610228565b820191906000526020600020905b81548152906001019060200180831161020b57829003601f168201915b50505050509080600201805461023d9061070d565b80601f01602080910402602001604051908101604052809291908181526020018280546102699061070d565b80156102b65780601f1061028b576101008083540402835291602001916102b6565b820191906000526020600020905b81548152906001019060200180831161029957829003601f168201915b5050505050908060030180546102cb9061070d565b80601f01602080910402602001604051908101604052809291908181526020018280546102f79061070d565b80156103445780601f1061031957610100808354040283529160200191610344565b820191906000526020600020905b81548152906001019060200180831161032757829003601f168201915b5050505050905084565b600080600001805461035f9061070d565b80601f016020809104026020016040519081016040528092919081815260200182805461038b9061070d565b80156103d85780601f106103ad576101008083540402835291602001916103d8565b820191906000526020600020905b8154815290600101906020018083116103bb57829003601f168201915b5050505050908060010180546103ed9061070d565b80601f01602080910402602001604051908101604052809291908181526020018280546104199061070d565b80156104665780601f1061043b57610100808354040283529160200191610466565b820191906000526020600020905b81548152906001019060200180831161044957829003601f168201915b50505050509080600201805461047b9061070d565b80601f01602080910402602001604051908101604052809291908181526020018280546104a79061070d565b80156104f45780601f106104c9576101008083540402835291602001916104f4565b820191906000526020600020905b8154815290600101906020018083116104d757829003601f168201915b5050505050905083565b6000819050919050565b610511816104fe565b82525050565b600060a08201905061052c6000830188610508565b6105396020830187610508565b6105466040830186610508565b6105536060830185610508565b6105606080830184610508565b9695505050505050565b600060608201905061057f6000830186610508565b61058c6020830185610508565b6105996040830184610508565b949350505050565b600081519050919050565b600082825260208201905092915050565b60005b838110156105db5780820151818401526020810190506105c0565b60008484015250505050565b6000601f19601f8301169050919050565b6000610603826105a1565b61060d81856105ac565b935061061d8185602086016105bd565b610626816105e7565b840191505092915050565b6000608082019050818103600083015261064b81876105f8565b9050818103602083015261065f81866105f8565b9050818103604083015261067381856105f8565b9050818103606083015261068781846105f8565b905095945050505050565b600060608201905081810360008301526106ac81866105f8565b905081810360208301526106c081856105f8565b905081810360408301526106d481846105f8565b9050949350505050565b7f4e487b7100000000000000000000000000000000000000000000000000000000600052602260045260246000fd5b6000600282049050600182168061072557607f821691505b602082108103610738576107376106de565b5b5091905056fea2646970667358221220d1bc77e0a2ae734f1aeaa943958e1e4befd3731fda21582b43430aa64862451464736f6c63430008120033","opcodes":"PUSH1 0x80 PUSH1 0x40 MSTORE CALLVALUE DUP1 ISZERO PUSH3 0x11 JUMPI PUSH1 0x0 DUP1 REVERT JUMPDEST POP PUSH1 0x40 MLOAD PUSH3 0x12F5 CODESIZE SUB DUP1 PUSH3 0x12F5 DUP4 CODECOPY DUP2 DUP2 ADD PUSH1 0x40 MSTORE DUP2 ADD SWAP1 PUSH3 0x37 SWAP2 SWAP1 PUSH3 0x72C JUMP JUMPDEST PUSH1 0x40 MLOAD DUP1 PUSH1 0x60 ADD PUSH1 0x40 MSTORE DUP1 DUP6 PUSH1 0x0 DUP2 MLOAD DUP2 LT PUSH3 0x59 JUMPI PUSH3 0x58 PUSH3 0x81A JUMP JUMPDEST JUMPDEST PUSH1 0x20 MUL PUSH1 0x20 ADD ADD MLOAD DUP2 MSTORE PUSH1 0x20 ADD DUP6 PUSH1 0x1 DUP2 MLOAD DUP2 LT PUSH3 0x7D JUMPI PUSH3 0x7C PUSH3 0x81A JUMP JUMPDEST JUMPDEST PUSH1 0x20 MUL PUSH1 0x20 ADD ADD MLOAD DUP2 MSTORE PUSH1 0x20 ADD DUP6 PUSH1 0x2 DUP2 MLOAD DUP2 LT PUSH3 0xA1 JUMPI PUSH3 0xA0 PUSH3 0x81A JUMP JUMPDEST JUMPDEST PUSH1 0x20 MUL PUSH1 0x20 ADD ADD MLOAD DUP2 MSTORE POP PUSH1 0x0 DUP1 DUP3 ADD MLOAD DUP2 PUSH1 0x0 ADD SWAP1 DUP2 PUSH3 0xC4 SWAP2 SWAP1 PUSH3 0xA8A JUMP JUMPDEST POP PUSH1 0x20 DUP3 ADD MLOAD DUP2 PUSH1 0x1 ADD SWAP1 DUP2 PUSH3 0xDC SWAP2 SWAP1 PUSH3 0xA8A JUMP JUMPDEST POP PUSH1 0x40 DUP3 ADD MLOAD DUP2 PUSH1 0x2 ADD SWAP1 DUP2 PUSH3 0xF4 SWAP2 SWAP1 PUSH3 0xA8A JUMP JUMPDEST POP SWAP1 POP POP PUSH1 0x40 MLOAD DUP1 PUSH1 0xA0 ADD PUSH1 0x40 MSTORE DUP1 DUP5 PUSH1 0x0 DUP2 MLOAD DUP2 LT PUSH3 0x11A JUMPI PUSH3 0x119 PUSH3 0x81A JUMP JUMPDEST JUMPDEST PUSH1 0x20 MUL PUSH1 0x20 ADD ADD MLOAD DUP2 MSTORE PUSH1 0x20 ADD DUP5 PUSH1 0x1 DUP2 MLOAD DUP2 LT PUSH3 0x13E JUMPI PUSH3 0x13D PUSH3 0x81A JUMP JUMPDEST JUMPDEST PUSH1 0x20 MUL PUSH1 0x20 ADD ADD MLOAD DUP2 MSTORE PUSH1 0x20 ADD DUP5 PUSH1 0x2 DUP2 MLOAD DUP2 LT PUSH3 0x162 JUMPI PUSH3 0x161 PUSH3 0x81A JUMP JUMPDEST JUMPDEST PUSH1 0x20 MUL PUSH1 0x20 ADD ADD MLOAD DUP2 MSTORE PUSH1 0x20 ADD DUP5 PUSH1 0x3 DUP2 MLOAD DUP2 LT PUSH3 0x186 JUMPI PUSH3 0x185 PUSH3 0x81A JUMP JUMPDEST JUMPDEST PUSH1 0x20 MUL PUSH1 0x20 ADD ADD MLOAD DUP2 MSTORE PUSH1 0x20 ADD DUP5 PUSH1 0x4 DUP2 MLOAD DUP2 LT PUSH3 0x1AA JUMPI PUSH3 0x1A9 PUSH3 0x81A JUMP JUMPDEST JUMPDEST PUSH1 0x20 MUL PUSH1 0x20 ADD ADD MLOAD DUP2 MSTORE POP PUSH1 0x3 PUSH1 0x0 DUP3 ADD MLOAD DUP2 PUSH1 0x0 ADD SSTORE PUSH1 0x20 DUP3 ADD MLOAD DUP2 PUSH1 0x1 ADD SSTORE PUSH1 0x40 DUP3 ADD MLOAD DUP2 PUSH1 0x2 ADD SSTORE PUSH1 0x60 DUP3 ADD MLOAD DUP2 PUSH1 0x3 ADD SSTORE PUSH1 0x80 DUP3 ADD MLOAD DUP2 PUSH1 0x4 ADD SSTORE SWAP1 POP POP PUSH1 0x40 MLOAD DUP1 PUSH1 0x60 ADD PUSH1 0x40 MSTORE DUP1 DUP4 PUSH1 0x0 DUP2 MLOAD DUP2 LT PUSH3 0x20E JUMPI PUSH3 0x20D PUSH3 0x81A JUMP JUMPDEST JUMPDEST PUSH1 0x20 MUL PUSH1 0x20 ADD ADD MLOAD DUP2 MSTORE PUSH1 0x20 ADD DUP4 PUSH1 0x1 DUP2 MLOAD DUP2 LT PUSH3 0x232 JUMPI PUSH3 0x231 PUSH3 0x81A JUMP JUMPDEST JUMPDEST PUSH1 0x20 MUL PUSH1 0x20 ADD ADD MLOAD DUP2 MSTORE PUSH1 0x20 ADD DUP4 PUSH1 0x2 DUP2 MLOAD DUP2 LT PUSH3 0x256 JUMPI PUSH3 0x255 PUSH3 0x81A JUMP JUMPDEST JUMPDEST PUSH1 0x20 MUL PUSH1 0x20 ADD ADD MLOAD DUP2 MSTORE POP PUSH1 0x8 PUSH1 0x0 DUP3 ADD MLOAD DUP2 PUSH1 0x0 ADD SSTORE PUSH1 0x20 DUP3 ADD MLOAD DUP2 PUSH1 0x1 ADD SSTORE PUSH1 0x40 DUP3 ADD MLOAD DUP2 PUSH1 0x2 ADD SSTORE SWAP1 POP POP PUSH1 0x40 MLOAD DUP1 PUSH1 0x80 ADD PUSH1 0x40 MSTORE DUP1 DUP3 PUSH1 0x0 DUP2 MLOAD DUP2 LT PUSH3 0x2A6 JUMPI PUSH3 0x2A5 PUSH3 0x81A JUMP JUMPDEST JUMPDEST PUSH1 0x20 MUL PUSH1 0x20 ADD ADD MLOAD DUP2 MSTORE PUSH1 0x20 ADD DUP3 PUSH1 0x1 DUP2 MLOAD DUP2 LT PUSH3 0x2CA JUMPI PUSH3 0x2C9 PUSH3 0x81A JUMP JUMPDEST JUMPDEST PUSH1 0x20 MUL PUSH1 0x20 ADD ADD MLOAD DUP2 MSTORE PUSH1 0x20 ADD DUP3 PUSH1 0x2 DUP2 MLOAD DUP2 LT PUSH3 0x2EE JUMPI PUSH3 0x2ED PUSH3 0x81A JUMP JUMPDEST JUMPDEST PUSH1 0x20 MUL PUSH1 0x20 ADD ADD MLOAD DUP2 MSTORE PUSH1 0x20 ADD DUP3 PUSH1 0x3 DUP2 MLOAD DUP2 LT PUSH3 0x312 JUMPI PUSH3 0x311 PUSH3 0x81A JUMP JUMPDEST JUMPDEST PUSH1 0x20 MUL PUSH1 0x20 ADD ADD MLOAD DUP2 MSTORE POP PUSH1 0xB PUSH1 0x0 DUP3 ADD MLOAD DUP2 PUSH1 0x0 ADD SWAP1 DUP2 PUSH3 0x336 SWAP2 SWAP1 PUSH3 0xA8A JUMP JUMPDEST POP PUSH1 0x20 DUP3 ADD MLOAD DUP2 PUSH1 0x1 ADD SWAP1 DUP2 PUSH3 0x34E SWAP2 SWAP1 PUSH3 0xA8A JUMP JUMPDEST POP PUSH1 0x40 DUP3 ADD MLOAD DUP2 PUSH1 0x2 ADD SWAP1 DUP2 PUSH3 0x366 SWAP2 SWAP1 PUSH3 0xA8A JUMP JUMPDEST POP PUSH1 0x60 DUP3 ADD MLOAD DUP2 PUSH1 0x3 ADD SWAP1 DUP2 PUSH3 0x37E SWAP2 SWAP1 PUSH3 0xA8A JUMP JUMPDEST POP SWAP1 POP POP POP POP POP POP PUSH3 0xB71 JUMP JUMPDEST PUSH1 0x0 PUSH1 0x40 MLOAD SWAP1 POP SWAP1 JUMP JUMPDEST PUSH1 0x0 DUP1 REVERT JUMPDEST PUSH1 0x0 DUP1 REVERT JUMPDEST PUSH1 0x0 DUP1 REVERT JUMPDEST PUSH1 0x0 PUSH1 0x1F NOT PUSH1 0x1F DUP4 ADD AND SWAP1 POP SWAP2 SWAP1 POP JUMP JUMPDEST PUSH32 0x4E487B7100000000000000000000000000000000000000000000000000000000 PUSH1 0x0 MSTORE PUSH1 0x41 PUSH1 0x4 MSTORE PUSH1 0x24 PUSH1 0x0 REVERT JUMPDEST PUSH3 0x3F0 DUP3 PUSH3 0x3A5 JUMP JUMPDEST DUP2 ADD DUP2 DUP2 LT PUSH8 0xFFFFFFFFFFFFFFFF DUP3 GT OR ISZERO PUSH3 0x412 JUMPI PUSH3 0x411 PUSH3 0x3B6 JUMP JUMPDEST JUMPDEST DUP1 PUSH1 0x40 MSTORE POP POP POP JUMP JUMPDEST PUSH1 0x0 PUSH3 0x427 PUSH3 0x38C JUMP JUMPDEST SWAP1 POP PUSH3 0x435 DUP3 DUP3 PUSH3 0x3E5 JUMP JUMPDEST SWAP2 SWAP1 POP JUMP JUMPDEST PUSH1 0x0 PUSH8 0xFFFFFFFFFFFFFFFF DUP3 GT ISZERO PUSH3 0x458 JUMPI PUSH3 0x457 PUSH3 0x3B6 JUMP JUMPDEST JUMPDEST PUSH1 0x20 DUP3 MUL SWAP1 POP PUSH1 0x20 DUP2 ADD SWAP1 POP SWAP2 SWAP1 POP JUMP JUMPDEST PUSH1 0x0 DUP1 REVERT JUMPDEST PUSH1 0x0 DUP1 REVERT JUMPDEST PUSH1 0x0 PUSH8 0xFFFFFFFFFFFFFFFF DUP3 GT ISZERO PUSH3 0x491 JUMPI PUSH3 0x490 PUSH3 0x3B6 JUMP JUMPDEST JUMPDEST PUSH3 0x49C DUP3 PUSH3 0x3A5 JUMP JUMPDEST SWAP1 POP PUSH1 0x20 DUP2 ADD SWAP1 POP SWAP2 SWAP1 POP JUMP JUMPDEST PUSH1 0x0 JUMPDEST DUP4 DUP2 LT ISZERO PUSH3 0x4C9 JUMPI DUP1 DUP3 ADD MLOAD DUP2 DUP5 ADD MSTORE PUSH1 0x20 DUP2 ADD SWAP1 POP PUSH3 0x4AC JUMP JUMPDEST PUSH1 0x0 DUP5 DUP5 ADD MSTORE POP POP POP POP JUMP JUMPDEST PUSH1 0x0 PUSH3 0x4EC PUSH3 0x4E6 DUP5 PUSH3 0x473 JUMP JUMPDEST PUSH3 0x41B JUMP JUMPDEST SWAP1 POP DUP3 DUP2 MSTORE PUSH1 0x20 DUP2 ADD DUP5 DUP5 DUP5 ADD GT ISZERO PUSH3 0x50B JUMPI PUSH3 0x50A PUSH3 0x46E JUMP JUMPDEST JUMPDEST PUSH3 0x518 DUP5 DUP3 DUP6 PUSH3 0x4A9 JUMP JUMPDEST POP SWAP4 SWAP3 POP POP POP JUMP JUMPDEST PUSH1 0x0 DUP3 PUSH1 0x1F DUP4 ADD SLT PUSH3 0x538 JUMPI PUSH3 0x537 PUSH3 0x3A0 JUMP JUMPDEST JUMPDEST DUP2 MLOAD PUSH3 0x54A DUP5 DUP3 PUSH1 0x20 DUP7 ADD PUSH3 0x4D5 JUMP JUMPDEST SWAP2 POP POP SWAP3 SWAP2 POP POP JUMP JUMPDEST PUSH1 0x0 PUSH3 0x56A PUSH3 0x564 DUP5 PUSH3 0x43A JUMP JUMPDEST PUSH3 0x41B JUMP JUMPDEST SWAP1 POP DUP1 DUP4 DUP3 MSTORE PUSH1 0x20 DUP3 ADD SWAP1 POP PUSH1 0x20 DUP5 MUL DUP4 ADD DUP6 DUP2 GT ISZERO PUSH3 0x590 JUMPI PUSH3 0x58F PUSH3 0x469 JUMP JUMPDEST JUMPDEST DUP4 JUMPDEST DUP2 DUP2 LT ISZERO PUSH3 0x5DE JUMPI DUP1 MLOAD PUSH8 0xFFFFFFFFFFFFFFFF DUP2 GT ISZERO PUSH3 0x5B9 JUMPI PUSH3 0x5B8 PUSH3 0x3A0 JUMP JUMPDEST JUMPDEST DUP1 DUP7 ADD PUSH3 0x5C8 DUP10 DUP3 PUSH3 0x520 JUMP JUMPDEST DUP6 MSTORE PUSH1 0x20 DUP6 ADD SWAP5 POP POP POP PUSH1 0x20 DUP2 ADD SWAP1 POP PUSH3 0x592 JUMP JUMPDEST POP POP POP SWAP4 SWAP3 POP POP POP JUMP JUMPDEST PUSH1 0x0 DUP3 PUSH1 0x1F DUP4 ADD SLT PUSH3 0x600 JUMPI PUSH3 0x5FF PUSH3 0x3A0 JUMP JUMPDEST JUMPDEST DUP2 MLOAD PUSH3 0x612 DUP5 DUP3 PUSH1 0x20 DUP7 ADD PUSH3 0x553 JUMP JUMPDEST SWAP2 POP POP SWAP3 SWAP2 POP POP JUMP JUMPDEST PUSH1 0x0 PUSH8 0xFFFFFFFFFFFFFFFF DUP3 GT ISZERO PUSH3 0x639 JUMPI PUSH3 0x638 PUSH3 0x3B6 JUMP JUMPDEST JUMPDEST PUSH1 0x20 DUP3 MUL SWAP1 POP PUSH1 0x20 DUP2 ADD SWAP1 POP SWAP2 SWAP1 POP JUMP JUMPDEST PUSH1 0x0 DUP2 SWAP1 POP SWAP2 SWAP1 POP JUMP JUMPDEST PUSH3 0x65F DUP2 PUSH3 0x64A JUMP JUMPDEST DUP2 EQ PUSH3 0x66B JUMPI PUSH1 0x0 DUP1 REVERT JUMPDEST POP JUMP JUMPDEST PUSH1 0x0 DUP2 MLOAD SWAP1 POP PUSH3 0x67F DUP2 PUSH3 0x654 JUMP JUMPDEST SWAP3 SWAP2 POP POP JUMP JUMPDEST PUSH1 0x0 PUSH3 0x69C PUSH3 0x696 DUP5 PUSH3 0x61B JUMP JUMPDEST PUSH3 0x41B JUMP JUMPDEST SWAP1 POP DUP1 DUP4 DUP3 MSTORE PUSH1 0x20 DUP3 ADD SWAP1 POP PUSH1 0x20 DUP5 MUL DUP4 ADD DUP6 DUP2 GT ISZERO PUSH3 0x6C2 JUMPI PUSH3 0x6C1 PUSH3 0x469 JUMP JUMPDEST JUMPDEST DUP4 JUMPDEST DUP2 DUP2 LT ISZERO PUSH3 0x6EF JUMPI DUP1 PUSH3 0x6DA DUP9 DUP3 PUSH3 0x66E JUMP JUMPDEST DUP5 MSTORE PUSH1 0x20 DUP5 ADD SWAP4 POP POP PUSH1 0x20 DUP2 ADD SWAP1 POP PUSH3 0x6C4 JUMP JUMPDEST POP POP POP SWAP4 SWAP3 POP POP POP JUMP JUMPDEST PUSH1 0x0 DUP3 PUSH1 0x1F DUP4 ADD SLT PUSH3 0x711 JUMPI PUSH3 0x710 PUSH3 0x3A0 JUMP JUMPDEST JUMPDEST DUP2 MLOAD PUSH3 0x723 DUP5 DUP3 PUSH1 0x20 DUP7 ADD PUSH3 0x685 JUMP JUMPDEST SWAP2 POP POP SWAP3 SWAP2 POP POP JUMP JUMPDEST PUSH1 0x0 DUP1 PUSH1 0x0 DUP1 PUSH1 0x80 DUP6 DUP8 SUB SLT ISZERO PUSH3 0x749 JUMPI PUSH3 0x748 PUSH3 0x396 JUMP JUMPDEST JUMPDEST PUSH1 0x0 DUP6 ADD MLOAD PUSH8 0xFFFFFFFFFFFFFFFF DUP2 GT ISZERO PUSH3 0x76A JUMPI PUSH3 0x769 PUSH3 0x39B JUMP JUMPDEST JUMPDEST PUSH3 0x778 DUP8 DUP3 DUP9 ADD PUSH3 0x5E8 JUMP JUMPDEST SWAP5 POP POP PUSH1 0x20 DUP6 ADD MLOAD PUSH8 0xFFFFFFFFFFFFFFFF DUP2 GT ISZERO PUSH3 0x79C JUMPI PUSH3 0x79B PUSH3 0x39B JUMP JUMPDEST JUMPDEST PUSH3 0x7AA DUP8 DUP3 DUP9 ADD PUSH3 0x6F9 JUMP JUMPDEST SWAP4 POP POP PUSH1 0x40 DUP6 ADD MLOAD PUSH8 0xFFFFFFFFFFFFFFFF DUP2 GT ISZERO PUSH3 0x7CE JUMPI PUSH3 0x7CD PUSH3 0x39B JUMP JUMPDEST JUMPDEST PUSH3 0x7DC DUP8 DUP3 DUP9 ADD PUSH3 0x6F9 JUMP JUMPDEST SWAP3 POP POP PUSH1 0x60 DUP6 ADD MLOAD PUSH8 0xFFFFFFFFFFFFFFFF DUP2 GT ISZERO PUSH3 0x800 JUMPI PUSH3 0x7FF PUSH3 0x39B JUMP JUMPDEST JUMPDEST PUSH3 0x80E DUP8 DUP3 DUP9 ADD PUSH3 0x5E8 JUMP JUMPDEST SWAP2 POP POP SWAP3 SWAP6 SWAP2 SWAP5 POP SWAP3 POP JUMP JUMPDEST PUSH32 0x4E487B7100000000000000000000000000000000000000000000000000000000 PUSH1 0x0 MSTORE PUSH1 0x32 PUSH1 0x4 MSTORE PUSH1 0x24 PUSH1 0x0 REVERT JUMPDEST PUSH1 0x0 DUP2 MLOAD SWAP1 POP SWAP2 SWAP1 POP JUMP JUMPDEST PUSH32 0x4E487B7100000000000000000000000000000000000000000000000000000000 PUSH1 0x0 MSTORE PUSH1 0x22 PUSH1 0x4 MSTORE PUSH1 0x24 PUSH1 0x0 REVERT JUMPDEST PUSH1 0x0 PUSH1 0x2 DUP3 DIV SWAP1 POP PUSH1 0x1 DUP3 AND DUP1 PUSH3 0x89C JUMPI PUSH1 0x7F DUP3 AND SWAP2 POP JUMPDEST PUSH1 0x20 DUP3 LT DUP2 SUB PUSH3 0x8B2 JUMPI PUSH3 0x8B1 PUSH3 0x854 JUMP JUMPDEST JUMPDEST POP SWAP2 SWAP1 POP JUMP JUMPDEST PUSH1 0x0 DUP2 SWAP1 POP DUP2 PUSH1 0x0 MSTORE PUSH1 0x20 PUSH1 0x0 KECCAK256 SWAP1 POP SWAP2 SWAP1 POP JUMP JUMPDEST PUSH1 0x0 PUSH1 0x20 PUSH1 0x1F DUP4 ADD DIV SWAP1 POP SWAP2 SWAP1 POP JUMP JUMPDEST PUSH1 0x0 DUP3 DUP3 SHL SWAP1 POP SWAP3 SWAP2 POP POP JUMP JUMPDEST PUSH1 0x0 PUSH1 0x8 DUP4 MUL PUSH3 0x91C PUSH32 0xFFFFFFFFFFFFFFFFFFFFFFFFFFFFFFFFFFFFFFFFFFFFFFFFFFFFFFFFFFFFFFFF DUP3 PUSH3 0x8DD JUMP JUMPDEST PUSH3 0x928 DUP7 DUP4 PUSH3 0x8DD JUMP JUMPDEST SWAP6 POP DUP1 NOT DUP5 AND SWAP4 POP DUP1 DUP7 AND DUP5 OR SWAP3 POP POP POP SWAP4 SWAP3 POP POP POP JUMP JUMPDEST PUSH1 0x0 DUP2 SWAP1 POP SWAP2 SWAP1 POP JUMP JUMPDEST PUSH1 0x0 PUSH3 0x96B PUSH3 0x965 PUSH3 0x95F DUP5 PUSH3 0x64A JUMP JUMPDEST PUSH3 0x940 JUMP JUMPDEST PUSH3 0x64A JUMP JUMPDEST SWAP1 POP SWAP2 SWAP1 POP JUMP JUMPDEST PUSH1 0x0 DUP2 SWAP1 POP SWAP2 SWAP1 POP JUMP JUMPDEST PUSH3 0x987 DUP4 PUSH3 0x94A JUMP JUMPDEST PUSH3 0x99F PUSH3 0x996 DUP3 PUSH3 0x972 JUMP JUMPDEST DUP5 DUP5 SLOAD PUSH3 0x8EA JUMP JUMPDEST DUP3 SSTORE POP POP POP POP JUMP JUMPDEST PUSH1 0x0 SWAP1 JUMP JUMPDEST PUSH3 0x9B6 PUSH3 0x9A7 JUMP JUMPDEST PUSH3 0x9C3 DUP2 DUP5 DUP5 PUSH3 0x97C JUMP JUMPDEST POP POP POP JUMP JUMPDEST JUMPDEST DUP2 DUP2 LT ISZERO PUSH3 0x9EB JUMPI PUSH3 0x9DF PUSH1 0x0 DUP3 PUSH3 0x9AC JUMP JUMPDEST PUSH1 0x1 DUP2 ADD SWAP1 POP PUSH3 0x9C9 JUMP JUMPDEST POP POP JUMP JUMPDEST PUSH1 0x1F DUP3 GT ISZERO PUSH3 0xA3A JUMPI PUSH3 0xA04 DUP2 PUSH3 0x8B8 JUMP JUMPDEST PUSH3 0xA0F DUP5 PUSH3 0x8CD JUMP JUMPDEST DUP2 ADD PUSH1 0x20 DUP6 LT ISZERO PUSH3 0xA1F JUMPI DUP2 SWAP1 POP JUMPDEST PUSH3 0xA37 PUSH3 0xA2E DUP6 PUSH3 0x8CD JUMP JUMPDEST DUP4 ADD DUP3 PUSH3 0x9C8 JUMP JUMPDEST POP POP JUMPDEST POP POP POP JUMP JUMPDEST PUSH1 0x0 DUP3 DUP3 SHR SWAP1 POP SWAP3 SWAP2 POP POP JUMP JUMPDEST PUSH1 0x0 PUSH3 0xA5F PUSH1 0x0 NOT DUP5 PUSH1 0x8 MUL PUSH3 0xA3F JUMP JUMPDEST NOT DUP1 DUP4 AND SWAP2 POP POP SWAP3 SWAP2 POP POP JUMP JUMPDEST PUSH1 0x0 PUSH3 0xA7A DUP4 DUP4 PUSH3 0xA4C JUMP JUMPDEST SWAP2 POP DUP3 PUSH1 0x2 MUL DUP3 OR SWAP1 POP SWAP3 SWAP2 POP POP JUMP JUMPDEST PUSH3 0xA95 DUP3 PUSH3 0x849 JUMP JUMPDEST PUSH8 0xFFFFFFFFFFFFFFFF DUP2 GT ISZERO PUSH3 0xAB1 JUMPI PUSH3 0xAB0 PUSH3 0x3B6 JUMP JUMPDEST JUMPDEST PUSH3 0xABD DUP3 SLOAD PUSH3 0x883 JUMP JUMPDEST PUSH3 0xACA DUP3 DUP3 DUP6 PUSH3 0x9EF JUMP JUMPDEST PUSH1 0x0 PUSH1 0x20 SWAP1 POP PUSH1 0x1F DUP4 GT PUSH1 0x1 DUP2 EQ PUSH3 0xB02 JUMPI PUSH1 0x0 DUP5 ISZERO PUSH3 0xAED JUMPI DUP3 DUP8 ADD MLOAD SWAP1 POP JUMPDEST PUSH3 0xAF9 DUP6 DUP3 PUSH3 0xA6C JUMP JUMPDEST DUP7 SSTORE POP PUSH3 0xB69 JUMP JUMPDEST PUSH1 0x1F NOT DUP5 AND PUSH3 0xB12 DUP7 PUSH3 0x8B8 JUMP JUMPDEST PUSH1 0x0 JUMPDEST DUP3 DUP2 LT ISZERO PUSH3 0xB3C JUMPI DUP5 DUP10 ADD MLOAD DUP3 SSTORE PUSH1 0x1 DUP3 ADD SWAP2 POP PUSH1 0x20 DUP6 ADD SWAP5 POP PUSH1 0x20 DUP2 ADD SWAP1 POP PUSH3 0xB15 JUMP JUMPDEST DUP7 DUP4 LT ISZERO PUSH3 0xB5C JUMPI DUP5 DUP10 ADD MLOAD PUSH3 0xB58 PUSH1 0x1F DUP10 AND DUP3 PUSH3 0xA4C JUMP JUMPDEST DUP4 SSTORE POP JUMPDEST PUSH1 0x1 PUSH1 0x2 DUP9 MUL ADD DUP9 SSTORE POP POP POP JUMPDEST POP POP POP POP POP POP JUMP JUMPDEST PUSH2 0x774 DUP1 PUSH3 0xB81 PUSH1 0x0 CODECOPY PUSH1 0x0 RETURN INVALID PUSH1 0x80 PUSH1 0x40 MSTORE CALLVALUE DUP1 ISZERO PUSH2 0x10 JUMPI PUSH1 0x0 DUP1 REVERT JUMPDEST POP PUSH1 0x4 CALLDATASIZE LT PUSH2 0x4C JUMPI PUSH1 0x0 CALLDATALOAD PUSH1 0xE0 SHR DUP1 PUSH4 0x376A646A EQ PUSH2 0x51 JUMPI DUP1 PUSH4 0x52D585ED EQ PUSH2 0x73 JUMPI DUP1 PUSH4 0xD2AC3687 EQ PUSH2 0x93 JUMPI DUP1 PUSH4 0xEF4D4E2B EQ PUSH2 0xB4 JUMPI JUMPDEST PUSH1 0x0 DUP1 REVERT JUMPDEST PUSH2 0x59 PUSH2 0xD4 JUMP JUMPDEST PUSH1 0x40 MLOAD PUSH2 0x6A SWAP6 SWAP5 SWAP4 SWAP3 SWAP2 SWAP1 PUSH2 0x517 JUMP JUMPDEST PUSH1 0x40 MLOAD DUP1 SWAP2 SUB SWAP1 RETURN JUMPDEST PUSH2 0x7B PUSH2 0xF8 JUMP JUMPDEST PUSH1 0x40 MLOAD PUSH2 0x8A SWAP4 SWAP3 SWAP2 SWAP1 PUSH2 0x56A JUMP JUMPDEST PUSH1 0x40 MLOAD DUP1 SWAP2 SUB SWAP1 RETURN JUMPDEST PUSH2 0x9B PUSH2 0x110 JUMP JUMPDEST PUSH1 0x40 MLOAD PUSH2 0xAB SWAP5 SWAP4 SWAP3 SWAP2 SWAP1 PUSH2 0x631 JUMP JUMPDEST PUSH1 0x40 MLOAD DUP1 SWAP2 SUB SWAP1 RETURN JUMPDEST PUSH2 0xBC PUSH2 0x34E JUMP JUMPDEST PUSH1 0x40 MLOAD PUSH2 0xCB SWAP4 SWAP3 SWAP2 SWAP1 PUSH2 0x692 JUMP JUMPDEST PUSH1 0x40 MLOAD DUP1 SWAP2 SUB SWAP1 RETURN JUMPDEST PUSH1 0x3 DUP1 PUSH1 0x0 ADD SLOAD SWAP1 DUP1 PUSH1 0x1 ADD SLOAD SWAP1 DUP1 PUSH1 0x2 ADD SLOAD SWAP1 DUP1 PUSH1 0x3 ADD SLOAD SWAP1 DUP1 PUSH1 0x4 ADD SLOAD SWAP1 POP DUP6 JUMP JUMPDEST PUSH1 0x8 DUP1 PUSH1 0x0 ADD SLOAD SWAP1 DUP1 PUSH1 0x1 ADD SLOAD SWAP1 DUP1 PUSH1 0x2 ADD SLOAD SWAP1 POP DUP4 JUMP JUMPDEST PUSH1 0xB DUP1 PUSH1 0x0 ADD DUP1 SLOAD PUSH2 0x121 SWAP1 PUSH2 0x70D JUMP JUMPDEST DUP1 PUSH1 0x1F ADD PUSH1 0x20 DUP1 SWAP2 DIV MUL PUSH1 0x20 ADD PUSH1 0x40 MLOAD SWAP1 DUP2 ADD PUSH1 0x40 MSTORE DUP1 SWAP3 SWAP2 SWAP1 DUP2 DUP2 MSTORE PUSH1 0x20 ADD DUP3 DUP1 SLOAD PUSH2 0x14D SWAP1 PUSH2 0x70D JUMP JUMPDEST DUP1 ISZERO PUSH2 0x19A JUMPI DUP1 PUSH1 0x1F LT PUSH2 0x16F JUMPI PUSH2 0x100 DUP1 DUP4 SLOAD DIV MUL DUP4 MSTORE SWAP2 PUSH1 0x20 ADD SWAP2 PUSH2 0x19A JUMP JUMPDEST DUP3 ADD SWAP2 SWAP1 PUSH1 0x0 MSTORE PUSH1 0x20 PUSH1 0x0 KECCAK256 SWAP1 JUMPDEST DUP2 SLOAD DUP2 MSTORE SWAP1 PUSH1 0x1 ADD SWAP1 PUSH1 0x20 ADD DUP1 DUP4 GT PUSH2 0x17D JUMPI DUP3 SWAP1 SUB PUSH1 0x1F AND DUP3 ADD SWAP2 JUMPDEST POP POP POP POP POP SWAP1 DUP1 PUSH1 0x1 ADD DUP1 SLOAD PUSH2 0x1AF SWAP1 PUSH2 0x70D JUMP JUMPDEST DUP1 PUSH1 0x1F ADD PUSH1 0x20 DUP1 SWAP2 DIV MUL PUSH1 0x20 ADD PUSH1 0x40 MLOAD SWAP1 DUP2 ADD PUSH1 0x40 MSTORE DUP1 SWAP3 SWAP2 SWAP1 DUP2 DUP2 MSTORE PUSH1 0x20 ADD DUP3 DUP1 SLOAD PUSH2 0x1DB SWAP1 PUSH2 0x70D JUMP JUMPDEST DUP1 ISZERO PUSH2 0x228 JUMPI DUP1 PUSH1 0x1F LT PUSH2 0x1FD JUMPI PUSH2 0x100 DUP1 DUP4 SLOAD DIV MUL DUP4 MSTORE SWAP2 PUSH1 0x20 ADD SWAP2 PUSH2 0x228 JUMP JUMPDEST DUP3 ADD SWAP2 SWAP1 PUSH1 0x0 MSTORE PUSH1 0x20 PUSH1 0x0 KECCAK256 SWAP1 JUMPDEST DUP2 SLOAD DUP2 MSTORE SWAP1 PUSH1 0x1 ADD SWAP1 PUSH1 0x20 ADD DUP1 DUP4 GT PUSH2 0x20B JUMPI DUP3 SWAP1 SUB PUSH1 0x1F AND DUP3 ADD SWAP2 JUMPDEST POP POP POP POP POP SWAP1 DUP1 PUSH1 0x2 ADD DUP1 SLOAD PUSH2 0x23D SWAP1 PUSH2 0x70D JUMP JUMPDEST DUP1 PUSH1 0x1F ADD PUSH1 0x20 DUP1 SWAP2 DIV MUL PUSH1 0x20 ADD PUSH1 0x40 MLOAD SWAP1 DUP2 ADD PUSH1 0x40 MSTORE DUP1 SWAP3 SWAP2 SWAP1 DUP2 DUP2 MSTORE PUSH1 0x20 ADD DUP3 DUP1 SLOAD PUSH2 0x269 SWAP1 PUSH2 0x70D JUMP JUMPDEST DUP1 ISZERO PUSH2 0x2B6 JUMPI DUP1 PUSH1 0x1F LT PUSH2 0x28B JUMPI PUSH2 0x100 DUP1 DUP4 SLOAD DIV MUL DUP4 MSTORE SWAP2 PUSH1 0x20 ADD SWAP2 PUSH2 0x2B6 JUMP JUMPDEST DUP3 ADD SWAP2 SWAP1 PUSH1 0x0 MSTORE PUSH1 0x20 PUSH1 0x0 KECCAK256 SWAP1 JUMPDEST DUP2 SLOAD DUP2 MSTORE SWAP1 PUSH1 0x1 ADD SWAP1 PUSH1 0x20 ADD DUP1 DUP4 GT PUSH2 0x299 JUMPI DUP3 SWAP1 SUB PUSH1 0x1F AND DUP3 ADD SWAP2 JUMPDEST POP POP POP POP POP SWAP1 DUP1 PUSH1 0x3 ADD DUP1 SLOAD PUSH2 0x2CB SWAP1 PUSH2 0x70D JUMP JUMPDEST DUP1 PUSH1 0x1F ADD PUSH1 0x20 DUP1 SWAP2 DIV MUL PUSH1 0x20 ADD PUSH1 0x40 MLOAD SWAP1 DUP2 ADD PUSH1 0x40 MSTORE DUP1 SWAP3 SWAP2 SWAP1 DUP2 DUP2 MSTORE PUSH1 0x20 ADD DUP3 DUP1 SLOAD PUSH2 0x2F7 SWAP1 PUSH2 0x70D JUMP JUMPDEST DUP1 ISZERO PUSH2 0x344 JUMPI DUP1 PUSH1 0x1F LT PUSH2 0x319 JUMPI PUSH2 0x100 DUP1 DUP4 SLOAD DIV MUL DUP4 MSTORE SWAP2 PUSH1 0x20 ADD SWAP2 PUSH2 0x344 JUMP JUMPDEST DUP3 ADD SWAP2 SWAP1 PUSH1 0x0 MSTORE PUSH1 0x20 PUSH1 0x0 KECCAK256 SWAP1 JUMPDEST DUP2 SLOAD DUP2 MSTORE SWAP1 PUSH1 0x1 ADD SWAP1 PUSH1 0x20 ADD DUP1 DUP4 GT PUSH2 0x327 JUMPI DUP3 SWAP1 SUB PUSH1 0x1F AND DUP3 ADD SWAP2 JUMPDEST POP POP POP POP POP SWAP1 POP DUP5 JUMP JUMPDEST PUSH1 0x0 DUP1 PUSH1 0x0 ADD DUP1 SLOAD PUSH2 0x35F SWAP1 PUSH2 0x70D JUMP JUMPDEST DUP1 PUSH1 0x1F ADD PUSH1 0x20 DUP1 SWAP2 DIV MUL PUSH1 0x20 ADD PUSH1 0x40 MLOAD SWAP1 DUP2 ADD PUSH1 0x40 MSTORE DUP1 SWAP3 SWAP2 SWAP1 DUP2 DUP2 MSTORE PUSH1 0x20 ADD DUP3 DUP1 SLOAD PUSH2 0x38B SWAP1 PUSH2 0x70D JUMP JUMPDEST DUP1 ISZERO PUSH2 0x3D8 JUMPI DUP1 PUSH1 0x1F LT PUSH2 0x3AD JUMPI PUSH2 0x100 DUP1 DUP4 SLOAD DIV MUL DUP4 MSTORE SWAP2 PUSH1 0x20 ADD SWAP2 PUSH2 0x3D8 JUMP JUMPDEST DUP3 ADD SWAP2 SWAP1 PUSH1 0x0 MSTORE PUSH1 0x20 PUSH1 0x0 KECCAK256 SWAP1 JUMPDEST DUP2 SLOAD DUP2 MSTORE SWAP1 PUSH1 0x1 ADD SWAP1 PUSH1 0x20 ADD DUP1 DUP4 GT PUSH2 0x3BB JUMPI DUP3 SWAP1 SUB PUSH1 0x1F AND DUP3 ADD SWAP2 JUMPDEST POP POP POP POP POP SWAP1 DUP1 PUSH1 0x1 ADD DUP1 SLOAD PUSH2 0x3ED SWAP1 PUSH2 0x70D JUMP JUMPDEST DUP1 PUSH1 0x1F ADD PUSH1 0x20 DUP1 SWAP2 DIV MUL PUSH1 0x20 ADD PUSH1 0x40 MLOAD SWAP1 DUP2 ADD PUSH1 0x40 MSTORE DUP1 SWAP3 SWAP2 SWAP1 DUP2 DUP2 MSTORE PUSH1 0x20 ADD DUP3 DUP1 SLOAD PUSH2 0x419 SWAP1 PUSH2 0x70D JUMP JUMPDEST DUP1 ISZERO PUSH2 0x466 JUMPI DUP1 PUSH1 0x1F LT PUSH2 0x43B JUMPI PUSH2 0x100 DUP1 DUP4 SLOAD DIV MUL DUP4 MSTORE SWAP2 PUSH1 0x20 ADD SWAP2 PUSH2 0x466 JUMP JUMPDEST DUP3 ADD SWAP2 SWAP1 PUSH1 0x0 MSTORE PUSH1 0x20 PUSH1 0x0 KECCAK256 SWAP1 JUMPDEST DUP2 SLOAD DUP2 MSTORE SWAP1 PUSH1 0x1 ADD SWAP1 PUSH1 0x20 ADD DUP1 DUP4 GT PUSH2 0x449 JUMPI DUP3 SWAP1 SUB PUSH1 0x1F AND DUP3 ADD SWAP2 JUMPDEST POP POP POP POP POP SWAP1 DUP1 PUSH1 0x2 ADD DUP1 SLOAD PUSH2 0x47B SWAP1 PUSH2 0x70D JUMP JUMPDEST DUP1 PUSH1 0x1F ADD PUSH1 0x20 DUP1 SWAP2 DIV MUL PUSH1 0x20 ADD PUSH1 0x40 MLOAD SWAP1 DUP2 ADD PUSH1 0x40 MSTORE DUP1 SWAP3 SWAP2 SWAP1 DUP2 DUP2 MSTORE PUSH1 0x20 ADD DUP3 DUP1 SLOAD PUSH2 0x4A7 SWAP1 PUSH2 0x70D JUMP JUMPDEST DUP1 ISZERO PUSH2 0x4F4 JUMPI DUP1 PUSH1 0x1F LT PUSH2 0x4C9 JUMPI PUSH2 0x100 DUP1 DUP4 SLOAD DIV MUL DUP4 MSTORE SWAP2 PUSH1 0x20 ADD SWAP2 PUSH2 0x4F4 JUMP JUMPDEST DUP3 ADD SWAP2 SWAP1 PUSH1 0x0 MSTORE PUSH1 0x20 PUSH1 0x0 KECCAK256 SWAP1 JUMPDEST DUP2 SLOAD DUP2 MSTORE SWAP1 PUSH1 0x1 ADD SWAP1 PUSH1 0x20 ADD DUP1 DUP4 GT PUSH2 0x4D7 JUMPI DUP3 SWAP1 SUB PUSH1 0x1F AND DUP3 ADD SWAP2 JUMPDEST POP POP POP POP POP SWAP1 POP DUP4 JUMP JUMPDEST PUSH1 0x0 DUP2 SWAP1 POP SWAP2 SWAP1 POP JUMP JUMPDEST PUSH2 0x511 DUP2 PUSH2 0x4FE JUMP JUMPDEST DUP3 MSTORE POP POP JUMP JUMPDEST PUSH1 0x0 PUSH1 0xA0 DUP3 ADD SWAP1 POP PUSH2 0x52C PUSH1 0x0 DUP4 ADD DUP9 PUSH2 0x508 JUMP JUMPDEST PUSH2 0x539 PUSH1 0x20 DUP4 ADD DUP8 PUSH2 0x508 JUMP JUMPDEST PUSH2 0x546 PUSH1 0x40 DUP4 ADD DUP7 PUSH2 0x508 JUMP JUMPDEST PUSH2 0x553 PUSH1 0x60 DUP4 ADD DUP6 PUSH2 0x508 JUMP JUMPDEST PUSH2 0x560 PUSH1 0x80 DUP4 ADD DUP5 PUSH2 0x508 JUMP JUMPDEST SWAP7 SWAP6 POP POP POP POP POP POP JUMP JUMPDEST PUSH1 0x0 PUSH1 0x60 DUP3 ADD SWAP1 POP PUSH2 0x57F PUSH1 0x0 DUP4 ADD DUP7 PUSH2 0x508 JUMP JUMPDEST PUSH2 0x58C PUSH1 0x20 DUP4 ADD DUP6 PUSH2 0x508 JUMP JUMPDEST PUSH2 0x599 PUSH1 0x40 DUP4 ADD DUP5 PUSH2 0x508 JUMP JUMPDEST SWAP5 SWAP4 POP POP POP POP JUMP JUMPDEST PUSH1 0x0 DUP2 MLOAD SWAP1 POP SWAP2 SWAP1 POP JUMP JUMPDEST PUSH1 0x0 DUP3 DUP3 MSTORE PUSH1 0x20 DUP3 ADD SWAP1 POP SWAP3 SWAP2 POP POP JUMP JUMPDEST PUSH1 0x0 JUMPDEST DUP4 DUP2 LT ISZERO PUSH2 0x5DB JUMPI DUP1 DUP3 ADD MLOAD DUP2 DUP5 ADD MSTORE PUSH1 0x20 DUP2 ADD SWAP1 POP PUSH2 0x5C0 JUMP JUMPDEST PUSH1 0x0 DUP5 DUP5 ADD MSTORE POP POP POP POP JUMP JUMPDEST PUSH1 0x0 PUSH1 0x1F NOT PUSH1 0x1F DUP4 ADD AND SWAP1 POP SWAP2 SWAP1 POP JUMP JUMPDEST PUSH1 0x0 PUSH2 0x603 DUP3 PUSH2 0x5A1 JUMP JUMPDEST PUSH2 0x60D DUP2 DUP6 PUSH2 0x5AC JUMP JUMPDEST SWAP4 POP PUSH2 0x61D DUP2 DUP6 PUSH1 0x20 DUP7 ADD PUSH2 0x5BD JUMP JUMPDEST PUSH2 0x626 DUP2 PUSH2 0x5E7 JUMP JUMPDEST DUP5 ADD SWAP2 POP POP SWAP3 SWAP2 POP POP JUMP JUMPDEST PUSH1 0x0 PUSH1 0x80 DUP3 ADD SWAP1 POP DUP2 DUP2 SUB PUSH1 0x0 DUP4 ADD MSTORE PUSH2 0x64B DUP2 DUP8 PUSH2 0x5F8 JUMP JUMPDEST SWAP1 POP DUP2 DUP2 SUB PUSH1 0x20 DUP4 ADD MSTORE PUSH2 0x65F DUP2 DUP7 PUSH2 0x5F8 JUMP JUMPDEST SWAP1 POP DUP2 DUP2 SUB PUSH1 0x40 DUP4 ADD MSTORE PUSH2 0x673 DUP2 DUP6 PUSH2 0x5F8 JUMP JUMPDEST SWAP1 POP DUP2 DUP2 SUB PUSH1 0x60 DUP4 ADD MSTORE PUSH2 0x687 DUP2 DUP5 PUSH2 0x5F8 JUMP JUMPDEST SWAP1 POP SWAP6 SWAP5 POP POP POP POP POP JUMP JUMPDEST PUSH1 0x0 PUSH1 0x60 DUP3 ADD SWAP1 POP DUP2 DUP2 SUB PUSH1 0x0 DUP4 ADD MSTORE PUSH2 0x6AC DUP2 DUP7 PUSH2 0x5F8 JUMP JUMPDEST SWAP1 POP DUP2 DUP2 SUB PUSH1 0x20 DUP4 ADD MSTORE PUSH2 0x6C0 DUP2 DUP6 PUSH2 0x5F8 JUMP JUMPDEST SWAP1 POP DUP2 DUP2 SUB PUSH1 0x40 DUP4 ADD MSTORE PUSH2 0x6D4 DUP2 DUP5 PUSH2 0x5F8 JUMP JUMPDEST SWAP1 POP SWAP5 SWAP4 POP POP POP POP JUMP JUMPDEST PUSH32 0x4E487B7100000000000000000000000000000000000000000000000000000000 PUSH1 0x0 MSTORE PUSH1 0x22 PUSH1 0x4 MSTORE PUSH1 0x24 PUSH1 0x0 REVERT JUMPDEST PUSH1 0x0 PUSH1 0x2 DUP3 DIV SWAP1 POP PUSH1 0x1 DUP3 AND DUP1 PUSH2 0x725 JUMPI PUSH1 0x7F DUP3 AND SWAP2 POP JUMPDEST PUSH1 0x20 DUP3 LT DUP2 SUB PUSH2 0x738 JUMPI PUSH2 0x737 PUSH2 0x6DE JUMP JUMPDEST JUMPDEST POP SWAP2 SWAP1 POP JUMP INVALID LOG2 PUSH5 0x6970667358 0x22 SLT KECCAK256 0xD1 0xBC PUSH24 0xE0A2AE734F1AEAA943958E1E4BEFD3731FDA21582B43430A 0xA6 BASEFEE PUSH3 0x451464 PUSH20 0x6F6C634300081200330000000000000000000000 "},"methodIdentifiers":{"ContractOverview()":"376a646a","ServiceChargeDetails()":"52d585ed","TypeAndDuration()":"d2ac3687","partyDetail()":"ef4d4e2b"}}}}}