{
  "_format": "hh-sol-artifact-1",
  "contractName": "UniblokContract",
  "sourceName": "contracts/UniblokContract.sol",
  "abi": [
    {
      "inputs": [
        {
          "internalType": "string[]",
          "name": "_partyDetails",
          "type": "string[]"
        },
        {
          "internalType": "uint256[]",
          "name": "_contractOverview",
          "type": "uint256[]"
        },
        {
          "internalType": "uint256[]",
          "name": "_serviceChargeDetails",
          "type": "uint256[]"
        },
        {
          "internalType": "string[]",
          "name": "_typeAndDuration",
          "type": "string[]"
        }
      ],
      "stateMutability": "nonpayable",
      "type": "constructor"
    },
    {
      "inputs": [],
      "name": "ContractOverview",
      "outputs": [
        {
          "internalType": "uint256",
          "name": "estimatedBudget",
          "type": "uint256"
        },
        {
          "internalType": "uint256",
          "name": "estimatedHours",
          "type": "uint256"
        },
        {
          "internalType": "uint256",
          "name": "estimatedWeek",
          "type": "uint256"
        },
        {
          "internalType": "uint256",
          "name": "estimatedTeamSize",
          "type": "uint256"
        },
        {
          "internalType": "uint256",
          "name": "netSettlement",
          "type": "uint256"
        }
      ],
      "stateMutability": "view",
      "type": "function"
    },
    {
      "inputs": [],
      "name": "ServiceChargeDetails",
      "outputs": [
        {
          "internalType": "uint256",
          "name": "uniblokServiceFee",
          "type": "uint256"
        },
        {
          "internalType": "uint256",
          "name": "expectedAmountToBeReceived",
          "type": "uint256"
        },
        {
          "internalType": "uint256",
          "name": "finalAmount",
          "type": "uint256"
        }
      ],
      "stateMutability": "view",
      "type": "function"
    },
    {
      "inputs": [],
      "name": "TypeAndDuration",
      "outputs": [
        {
          "internalType": "string",
          "name": "jobCategory",
          "type": "string"
        },
        {
          "internalType": "string",
          "name": "OfferDate",
          "type": "string"
        },
        {
          "internalType": "string",
          "name": "offerExpires",
          "type": "string"
        },
        {
          "internalType": "string",
          "name": "expectedCompletionOn",
          "type": "string"
        }
      ],
      "stateMutability": "view",
      "type": "function"
    },
    {
      "inputs": [],
      "name": "partyDetail",
      "outputs": [
        {
          "internalType": "string",
          "name": "jobTitle",
          "type": "string"
        },
        {
          "internalType": "string",
          "name": "clientName",
          "type": "string"
        },
        {
          "internalType": "string",
          "name": "serviceProvider",
          "type": "string"
        }
      ],
      "stateMutability": "view",
      "type": "function"
    }
  ],
  "bytecode": "0x60806040523480156200001157600080fd5b50604051620012f5380380620012f583398181016040528101906200003791906200072c565b6040518060600160405280856000815181106200005957620000586200081a565b5b60200260200101518152602001856001815181106200007d576200007c6200081a565b5b6020026020010151815260200185600281518110620000a157620000a06200081a565b5b6020026020010151815250600080820151816000019081620000c4919062000a8a565b506020820151816001019081620000dc919062000a8a565b506040820151816002019081620000f4919062000a8a565b509050506040518060a00160405280846000815181106200011a57620001196200081a565b5b60200260200101518152602001846001815181106200013e576200013d6200081a565b5b60200260200101518152602001846002815181106200016257620001616200081a565b5b60200260200101518152602001846003815181106200018657620001856200081a565b5b6020026020010151815260200184600481518110620001aa57620001a96200081a565b5b6020026020010151815250600360008201518160000155602082015181600101556040820151816002015560608201518160030155608082015181600401559050506040518060600160405280836000815181106200020e576200020d6200081a565b5b60200260200101518152602001836001815181106200023257620002316200081a565b5b60200260200101518152602001836002815181106200025657620002556200081a565b5b60200260200101518152506008600082015181600001556020820151816001015560408201518160020155905050604051806080016040528082600081518110620002a657620002a56200081a565b5b6020026020010151815260200182600181518110620002ca57620002c96200081a565b5b6020026020010151815260200182600281518110620002ee57620002ed6200081a565b5b60200260200101518152602001826003815181106200031257620003116200081a565b5b6020026020010151815250600b600082015181600001908162000336919062000a8a565b5060208201518160010190816200034e919062000a8a565b50604082015181600201908162000366919062000a8a565b5060608201518160030190816200037e919062000a8a565b509050505050505062000b71565b6000604051905090565b600080fd5b600080fd5b600080fd5b6000601f19601f8301169050919050565b7f4e487b7100000000000000000000000000000000000000000000000000000000600052604160045260246000fd5b620003f082620003a5565b810181811067ffffffffffffffff82111715620004125762000411620003b6565b5b80604052505050565b6000620004276200038c565b9050620004358282620003e5565b919050565b600067ffffffffffffffff821115620004585762000457620003b6565b5b602082029050602081019050919050565b600080fd5b600080fd5b600067ffffffffffffffff821115620004915762000490620003b6565b5b6200049c82620003a5565b9050602081019050919050565b60005b83811015620004c9578082015181840152602081019050620004ac565b60008484015250505050565b6000620004ec620004e68462000473565b6200041b565b9050828152602081018484840111156200050b576200050a6200046e565b5b62000518848285620004a9565b509392505050565b600082601f830112620005385762000537620003a0565b5b81516200054a848260208601620004d5565b91505092915050565b60006200056a62000564846200043a565b6200041b565b9050808382526020820190506020840283018581111562000590576200058f62000469565b5b835b81811015620005de57805167ffffffffffffffff811115620005b957620005b8620003a0565b5b808601620005c8898262000520565b8552602085019450505060208101905062000592565b5050509392505050565b600082601f8301126200060057620005ff620003a0565b5b81516200061284826020860162000553565b91505092915050565b600067ffffffffffffffff821115620006395762000638620003b6565b5b602082029050602081019050919050565b6000819050919050565b6200065f816200064a565b81146200066b57600080fd5b50565b6000815190506200067f8162000654565b92915050565b60006200069c62000696846200061b565b6200041b565b90508083825260208201905060208402830185811115620006c257620006c162000469565b5b835b81811015620006ef5780620006da88826200066e565b845260208401935050602081019050620006c4565b5050509392505050565b600082601f830112620007115762000710620003a0565b5b81516200072384826020860162000685565b91505092915050565b6000806000806080858703121562000749576200074862000396565b5b600085015167ffffffffffffffff8111156200076a57620007696200039b565b5b6200077887828801620005e8565b945050602085015167ffffffffffffffff8111156200079c576200079b6200039b565b5b620007aa87828801620006f9565b935050604085015167ffffffffffffffff811115620007ce57620007cd6200039b565b5b620007dc87828801620006f9565b925050606085015167ffffffffffffffff8111156200080057620007ff6200039b565b5b6200080e87828801620005e8565b91505092959194509250565b7f4e487b7100000000000000000000000000000000000000000000000000000000600052603260045260246000fd5b600081519050919050565b7f4e487b7100000000000000000000000000000000000000000000000000000000600052602260045260246000fd5b600060028204905060018216806200089c57607f821691505b602082108103620008b257620008b162000854565b5b50919050565b60008190508160005260206000209050919050565b60006020601f8301049050919050565b600082821b905092915050565b6000600883026200091c7fffffffffffffffffffffffffffffffffffffffffffffffffffffffffffffffff82620008dd565b620009288683620008dd565b95508019841693508086168417925050509392505050565b6000819050919050565b60006200096b620009656200095f846200064a565b62000940565b6200064a565b9050919050565b6000819050919050565b62000987836200094a565b6200099f620009968262000972565b848454620008ea565b825550505050565b600090565b620009b6620009a7565b620009c38184846200097c565b505050565b5b81811015620009eb57620009df600082620009ac565b600181019050620009c9565b5050565b601f82111562000a3a5762000a0481620008b8565b62000a0f84620008cd565b8101602085101562000a1f578190505b62000a3762000a2e85620008cd565b830182620009c8565b50505b505050565b600082821c905092915050565b600062000a5f6000198460080262000a3f565b1980831691505092915050565b600062000a7a838362000a4c565b9150826002028217905092915050565b62000a958262000849565b67ffffffffffffffff81111562000ab15762000ab0620003b6565b5b62000abd825462000883565b62000aca828285620009ef565b600060209050601f83116001811462000b02576000841562000aed578287015190505b62000af9858262000a6c565b86555062000b69565b601f19841662000b1286620008b8565b60005b8281101562000b3c5784890151825560018201915060208501945060208101905062000b15565b8683101562000b5c578489015162000b58601f89168262000a4c565b8355505b6001600288020188555050505b505050505050565b6107748062000b816000396000f3fe608060405234801561001057600080fd5b506004361061004c5760003560e01c8063376a646a1461005157806352d585ed14610073578063d2ac368714610093578063ef4d4e2b146100b4575b600080fd5b6100596100d4565b60405161006a959493929190610517565b60405180910390f35b61007b6100f8565b60405161008a9392919061056a565b60405180910390f35b61009b610110565b6040516100ab9493929190610631565b60405180910390f35b6100bc61034e565b6040516100cb93929190610692565b60405180910390f35b60038060000154908060010154908060020154908060030154908060040154905085565b60088060000154908060010154908060020154905083565b600b8060000180546101219061070d565b80601f016020809104026020016040519081016040528092919081815260200182805461014d9061070d565b801561019a5780601f1061016f5761010080835404028352916020019161019a565b820191906000526020600020905b81548152906001019060200180831161017d57829003601f168201915b5050505050908060010180546101af9061070d565b80601f01602080910402602001604051908101604052809291908181526020018280546101db9061070d565b80156102285780601f106101fd57610100808354040283529160200191610228565b820191906000526020600020905b81548152906001019060200180831161020b57829003601f168201915b50505050509080600201805461023d9061070d565b80601f01602080910402602001604051908101604052809291908181526020018280546102699061070d565b80156102b65780601f1061028b576101008083540402835291602001916102b6565b820191906000526020600020905b81548152906001019060200180831161029957829003601f168201915b5050505050908060030180546102cb9061070d565b80601f01602080910402602001604051908101604052809291908181526020018280546102f79061070d565b80156103445780601f1061031957610100808354040283529160200191610344565b820191906000526020600020905b81548152906001019060200180831161032757829003601f168201915b5050505050905084565b600080600001805461035f9061070d565b80601f016020809104026020016040519081016040528092919081815260200182805461038b9061070d565b80156103d85780601f106103ad576101008083540402835291602001916103d8565b820191906000526020600020905b8154815290600101906020018083116103bb57829003601f168201915b5050505050908060010180546103ed9061070d565b80601f01602080910402602001604051908101604052809291908181526020018280546104199061070d565b80156104665780601f1061043b57610100808354040283529160200191610466565b820191906000526020600020905b81548152906001019060200180831161044957829003601f168201915b50505050509080600201805461047b9061070d565b80601f01602080910402602001604051908101604052809291908181526020018280546104a79061070d565b80156104f45780601f106104c9576101008083540402835291602001916104f4565b820191906000526020600020905b8154815290600101906020018083116104d757829003601f168201915b5050505050905083565b6000819050919050565b610511816104fe565b82525050565b600060a08201905061052c6000830188610508565b6105396020830187610508565b6105466040830186610508565b6105536060830185610508565b6105606080830184610508565b9695505050505050565b600060608201905061057f6000830186610508565b61058c6020830185610508565b6105996040830184610508565b949350505050565b600081519050919050565b600082825260208201905092915050565b60005b838110156105db5780820151818401526020810190506105c0565b60008484015250505050565b6000601f19601f8301169050919050565b6000610603826105a1565b61060d81856105ac565b935061061d8185602086016105bd565b610626816105e7565b840191505092915050565b6000608082019050818103600083015261064b81876105f8565b9050818103602083015261065f81866105f8565b9050818103604083015261067381856105f8565b9050818103606083015261068781846105f8565b905095945050505050565b600060608201905081810360008301526106ac81866105f8565b905081810360208301526106c081856105f8565b905081810360408301526106d481846105f8565b9050949350505050565b7f4e487b7100000000000000000000000000000000000000000000000000000000600052602260045260246000fd5b6000600282049050600182168061072557607f821691505b602082108103610738576107376106de565b5b5091905056fea2646970667358221220d1bc77e0a2ae734f1aeaa943958e1e4befd3731fda21582b43430aa64862451464736f6c63430008120033",
  "linkReferences": {},
  "deployedLinkReferences": {}
}